{
	"data": {
		"bytecode": {
			"linkReferences": {},
			"object": "60a060405234801561000f575f5ffd5b50604051610f5d380380610f5d83398101604081905261002e91610358565b336040518060400160405280601381526020017f4a75566f6c7420456e6572677920546f6b656e000000000000000000000000008152506040518060400160405280600681526020016512955593d31560d21b81525081600390816100939190610412565b5060046100a08282610412565b5050506001600160a01b0381166100d157604051631e4fbdf760e01b81525f60048201526024015b60405180910390fd5b6100da816101a9565b505f811161011f5760405162461bcd60e51b81526020600482015260126024820152714d617820737570706c79206973207a65726f60701b60448201526064016100c8565b8082111561015f5760405162461bcd60e51b815260206004820152600d60248201526c092dcd2e8d2c2d8407c40dac2f609b1b60448201526064016100c8565b5f61016c6012600a6105c5565b61017690836105da565b90505f6101856012600a6105c5565b61018f90856105da565b608083905290506101a033826101fa565b50505050610604565b600580546001600160a01b038381166001600160a01b0319831681179093556040519116919082907f8be0079c531659141344cd1fd0a4f28419497f9722a3daafe3b4186f6b6457e0905f90a35050565b6001600160a01b0382166102235760405163ec442f0560e01b81525f60048201526024016100c8565b61022e5f8383610232565b5050565b6001600160a01b03831661025c578060025f82825461025191906105f1565b909155506102cc9050565b6001600160a01b0383165f90815260208190526040902054818110156102ae5760405163391434e360e21b81526001600160a01b038516600482015260248101829052604481018390526064016100c8565b6001600160a01b0384165f9081526020819052604090209082900390555b6001600160a01b0382166102e857600280548290039055610306565b6001600160a01b0382165f9081526020819052604090208054820190555b816001600160a01b0316836001600160a01b03167fddf252ad1be2c89b69c2b068fc378daa952ba7f163c4a11628f55a4df523b3ef8360405161034b91815260200190565b60405180910390a3505050565b5f5f60408385031215610369575f5ffd5b505080516020909101519092909150565b634e487b7160e01b5f52604160045260245ffd5b600181811c908216806103a257607f821691505b6020821081036103c057634e487b7160e01b5f52602260045260245ffd5b50919050565b601f82111561040d57805f5260205f20601f840160051c810160208510156103eb5750805b601f840160051c820191505b8181101561040a575f81556001016103f7565b50505b505050565b81516001600160401b0381111561042b5761042b61037a565b61043f81610439845461038e565b846103c6565b6020601f821160018114610471575f831561045a5750848201515b5f19600385901b1c1916600184901b17845561040a565b5f84815260208120601f198516915b828110156104a05787850151825560209485019460019092019101610480565b50848210156104bd57868401515f19600387901b60f8161c191681555b50505050600190811b01905550565b634e487b7160e01b5f52601160045260245ffd5b6001815b600184111561051b578085048111156104ff576104ff6104cc565b600184161561050d57908102905b60019390931c9280026104e4565b935093915050565b5f82610531575060016105bf565b8161053d57505f6105bf565b8160018114610553576002811461055d57610579565b60019150506105bf565b60ff84111561056e5761056e6104cc565b50506001821b6105bf565b5060208310610133831016604e8410600b841016171561059c575081810a6105bf565b6105a85f1984846104e0565b805f19048211156105bb576105bb6104cc565b0290505b92915050565b5f6105d360ff841683610523565b9392505050565b80820281158282048414176105bf576105bf6104cc565b808201808211156105bf576105bf6104cc565b60805161093a6106235f395f81816101de0152610321015261093a5ff3fe608060405234801561000f575f5ffd5b50600436106100e5575f3560e01c8063715018a611610088578063a9059cbb11610063578063a9059cbb146101c6578063d5abeb01146101d9578063dd62ed3e14610200578063f2fde38b14610238575f5ffd5b8063715018a61461019b5780638da5cb5b146101a357806395d89b41146101be575f5ffd5b806323b872dd116100c357806323b872dd1461013c578063313ce5671461014f57806340c10f191461015e57806370a0823114610173575f5ffd5b806306fdde03146100e9578063095ea7b31461010757806318160ddd1461012a575b5f5ffd5b6100f161024b565b6040516100fe91906107aa565b60405180910390f35b61011a6101153660046107fa565b6102db565b60405190151581526020016100fe565b6002545b6040519081526020016100fe565b61011a61014a366004610822565b6102f4565b604051601281526020016100fe565b61017161016c3660046107fa565b610317565b005b61012e61018136600461085c565b6001600160a01b03165f9081526020819052604090205490565b6101716103aa565b6005546040516001600160a01b0390911681526020016100fe565b6100f16103bd565b61011a6101d43660046107fa565b6103cc565b61012e7f000000000000000000000000000000000000000000000000000000000000000081565b61012e61020e36600461087c565b6001600160a01b039182165f90815260016020908152604080832093909416825291909152205490565b61017161024636600461085c565b6103d9565b60606003805461025a906108ad565b80601f0160208091040260200160405190810160405280929190818152602001828054610286906108ad565b80156102d15780601f106102a8576101008083540402835291602001916102d1565b820191905f5260205f20905b8154815290600101906020018083116102b457829003601f168201915b5050505050905090565b5f336102e8818585610416565b60019150505b92915050565b5f33610301858285610428565b61030c8585856104a3565b506001949350505050565b61031f610500565b7f00000000000000000000000000000000000000000000000000000000000000008161034a60025490565b61035491906108e5565b111561039c5760405162461bcd60e51b815260206004820152601260248201527113585e081cdd5c1c1b1e481c995858da195960721b60448201526064015b60405180910390fd5b6103a6828261052d565b5050565b6103b2610500565b6103bb5f610561565b565b60606004805461025a906108ad565b5f336102e88185856104a3565b6103e1610500565b6001600160a01b03811661040a57604051631e4fbdf760e01b81525f6004820152602401610393565b61041381610561565b50565b61042383838360016105b2565b505050565b6001600160a01b038381165f908152600160209081526040808320938616835292905220545f19811461049d578181101561048f57604051637dc7a0d960e11b81526001600160a01b03841660048201526024810182905260448101839052606401610393565b61049d84848484035f6105b2565b50505050565b6001600160a01b0383166104cc57604051634b637e8f60e11b81525f6004820152602401610393565b6001600160a01b0382166104f55760405163ec442f0560e01b81525f6004820152602401610393565b610423838383610684565b6005546001600160a01b031633146103bb5760405163118cdaa760e01b8152336004820152602401610393565b6001600160a01b0382166105565760405163ec442f0560e01b81525f6004820152602401610393565b6103a65f8383610684565b600580546001600160a01b038381166001600160a01b0319831681179093556040519116919082907f8be0079c531659141344cd1fd0a4f28419497f9722a3daafe3b4186f6b6457e0905f90a35050565b6001600160a01b0384166105db5760405163e602df0560e01b81525f6004820152602401610393565b6001600160a01b03831661060457604051634a1406b160e11b81525f6004820152602401610393565b6001600160a01b038085165f908152600160209081526040808320938716835292905220829055801561049d57826001600160a01b0316846001600160a01b03167f8c5be1e5ebec7d5bd14f71427d1e84f3dd0314c0f7b2291e5b200ac8c7c3b9258460405161067691815260200190565b60405180910390a350505050565b6001600160a01b0383166106ae578060025f8282546106a391906108e5565b9091555061071e9050565b6001600160a01b0383165f90815260208190526040902054818110156107005760405163391434e360e21b81526001600160a01b03851660048201526024810182905260448101839052606401610393565b6001600160a01b0384165f9081526020819052604090209082900390555b6001600160a01b03821661073a57600280548290039055610758565b6001600160a01b0382165f9081526020819052604090208054820190555b816001600160a01b0316836001600160a01b03167fddf252ad1be2c89b69c2b068fc378daa952ba7f163c4a11628f55a4df523b3ef8360405161079d91815260200190565b60405180910390a3505050565b602081525f82518060208401528060208501604085015e5f604082850101526040601f19601f83011684010191505092915050565b80356001600160a01b03811681146107f5575f5ffd5b919050565b5f5f6040838503121561080b575f5ffd5b610814836107df565b946020939093013593505050565b5f5f5f60608486031215610834575f5ffd5b61083d846107df565b925061084b602085016107df565b929592945050506040919091013590565b5f6020828403121561086c575f5ffd5b610875826107df565b9392505050565b5f5f6040838503121561088d575f5ffd5b610896836107df565b91506108a4602084016107df565b90509250929050565b600181811c908216806108c157607f821691505b6020821081036108df57634e487b7160e01b5f52602260045260245ffd5b50919050565b808201808211156102ee57634e487b7160e01b5f52601160045260245ffdfea26469706673582212201b7e70ed83f0b804a5713646a203b2391af0f2db8c2b758429f35a6840b954cf64736f6c634300081e0033",
			"opcodes": "PUSH1 0xA0 PUSH1 0x40 MSTORE CALLVALUE DUP1 ISZERO PUSH2 0xF JUMPI PUSH0 PUSH0 REVERT JUMPDEST POP PUSH1 0x40 MLOAD PUSH2 0xF5D CODESIZE SUB DUP1 PUSH2 0xF5D DUP4 CODECOPY DUP2 ADD PUSH1 0x40 DUP2 SWAP1 MSTORE PUSH2 0x2E SWAP2 PUSH2 0x358 JUMP JUMPDEST CALLER PUSH1 0x40 MLOAD DUP1 PUSH1 0x40 ADD PUSH1 0x40 MSTORE DUP1 PUSH1 0x13 DUP2 MSTORE PUSH1 0x20 ADD PUSH32 0x4A75566F6C7420456E6572677920546F6B656E00000000000000000000000000 DUP2 MSTORE POP PUSH1 0x40 MLOAD DUP1 PUSH1 0x40 ADD PUSH1 0x40 MSTORE DUP1 PUSH1 0x6 DUP2 MSTORE PUSH1 0x20 ADD PUSH6 0x12955593D315 PUSH1 0xD2 SHL DUP2 MSTORE POP DUP2 PUSH1 0x3 SWAP1 DUP2 PUSH2 0x93 SWAP2 SWAP1 PUSH2 0x412 JUMP JUMPDEST POP PUSH1 0x4 PUSH2 0xA0 DUP3 DUP3 PUSH2 0x412 JUMP JUMPDEST POP POP POP PUSH1 0x1 PUSH1 0x1 PUSH1 0xA0 SHL SUB DUP2 AND PUSH2 0xD1 JUMPI PUSH1 0x40 MLOAD PUSH4 0x1E4FBDF7 PUSH1 0xE0 SHL DUP2 MSTORE PUSH0 PUSH1 0x4 DUP3 ADD MSTORE PUSH1 0x24 ADD JUMPDEST PUSH1 0x40 MLOAD DUP1 SWAP2 SUB SWAP1 REVERT JUMPDEST PUSH2 0xDA DUP2 PUSH2 0x1A9 JUMP JUMPDEST POP PUSH0 DUP2 GT PUSH2 0x11F JUMPI PUSH1 0x40 MLOAD PUSH3 0x461BCD PUSH1 0xE5 SHL DUP2 MSTORE PUSH1 0x20 PUSH1 0x4 DUP3 ADD MSTORE PUSH1 0x12 PUSH1 0x24 DUP3 ADD MSTORE PUSH18 0x4D617820737570706C79206973207A65726F PUSH1 0x70 SHL PUSH1 0x44 DUP3 ADD MSTORE PUSH1 0x64 ADD PUSH2 0xC8 JUMP JUMPDEST DUP1 DUP3 GT ISZERO PUSH2 0x15F JUMPI PUSH1 0x40 MLOAD PUSH3 0x461BCD PUSH1 0xE5 SHL DUP2 MSTORE PUSH1 0x20 PUSH1 0x4 DUP3 ADD MSTORE PUSH1 0xD PUSH1 0x24 DUP3 ADD MSTORE PUSH13 0x92DCD2E8D2C2D8407C40DAC2F PUSH1 0x9B SHL PUSH1 0x44 DUP3 ADD MSTORE PUSH1 0x64 ADD PUSH2 0xC8 JUMP JUMPDEST PUSH0 PUSH2 0x16C PUSH1 0x12 PUSH1 0xA PUSH2 0x5C5 JUMP JUMPDEST PUSH2 0x176 SWAP1 DUP4 PUSH2 0x5DA JUMP JUMPDEST SWAP1 POP PUSH0 PUSH2 0x185 PUSH1 0x12 PUSH1 0xA PUSH2 0x5C5 JUMP JUMPDEST PUSH2 0x18F SWAP1 DUP6 PUSH2 0x5DA JUMP JUMPDEST PUSH1 0x80 DUP4 SWAP1 MSTORE SWAP1 POP PUSH2 0x1A0 CALLER DUP3 PUSH2 0x1FA JUMP JUMPDEST POP POP POP POP PUSH2 0x604 JUMP JUMPDEST PUSH1 0x5 DUP1 SLOAD PUSH1 0x1 PUSH1 0x1 PUSH1 0xA0 SHL SUB DUP4 DUP2 AND PUSH1 0x1 PUSH1 0x1 PUSH1 0xA0 SHL SUB NOT DUP4 AND DUP2 OR SWAP1 SWAP4 SSTORE PUSH1 0x40 MLOAD SWAP2 AND SWAP2 SWAP1 DUP3 SWAP1 PUSH32 0x8BE0079C531659141344CD1FD0A4F28419497F9722A3DAAFE3B4186F6B6457E0 SWAP1 PUSH0 SWAP1 LOG3 POP POP JUMP JUMPDEST PUSH1 0x1 PUSH1 0x1 PUSH1 0xA0 SHL SUB DUP3 AND PUSH2 0x223 JUMPI PUSH1 0x40 MLOAD PUSH4 0xEC442F05 PUSH1 0xE0 SHL DUP2 MSTORE PUSH0 PUSH1 0x4 DUP3 ADD MSTORE PUSH1 0x24 ADD PUSH2 0xC8 JUMP JUMPDEST PUSH2 0x22E PUSH0 DUP4 DUP4 PUSH2 0x232 JUMP JUMPDEST POP POP JUMP JUMPDEST PUSH1 0x1 PUSH1 0x1 PUSH1 0xA0 SHL SUB DUP4 AND PUSH2 0x25C JUMPI DUP1 PUSH1 0x2 PUSH0 DUP3 DUP3 SLOAD PUSH2 0x251 SWAP2 SWAP1 PUSH2 0x5F1 JUMP JUMPDEST SWAP1 SWAP2 SSTORE POP PUSH2 0x2CC SWAP1 POP JUMP JUMPDEST PUSH1 0x1 PUSH1 0x1 PUSH1 0xA0 SHL SUB DUP4 AND PUSH0 SWAP1 DUP2 MSTORE PUSH1 0x20 DUP2 SWAP1 MSTORE PUSH1 0x40 SWAP1 KECCAK256 SLOAD DUP2 DUP2 LT ISZERO PUSH2 0x2AE JUMPI PUSH1 0x40 MLOAD PUSH4 0x391434E3 PUSH1 0xE2 SHL DUP2 MSTORE PUSH1 0x1 PUSH1 0x1 PUSH1 0xA0 SHL SUB DUP6 AND PUSH1 0x4 DUP3 ADD MSTORE PUSH1 0x24 DUP2 ADD DUP3 SWAP1 MSTORE PUSH1 0x44 DUP2 ADD DUP4 SWAP1 MSTORE PUSH1 0x64 ADD PUSH2 0xC8 JUMP JUMPDEST PUSH1 0x1 PUSH1 0x1 PUSH1 0xA0 SHL SUB DUP5 AND PUSH0 SWAP1 DUP2 MSTORE PUSH1 0x20 DUP2 SWAP1 MSTORE PUSH1 0x40 SWAP1 KECCAK256 SWAP1 DUP3 SWAP1 SUB SWAP1 SSTORE JUMPDEST PUSH1 0x1 PUSH1 0x1 PUSH1 0xA0 SHL SUB DUP3 AND PUSH2 0x2E8 JUMPI PUSH1 0x2 DUP1 SLOAD DUP3 SWAP1 SUB SWAP1 SSTORE PUSH2 0x306 JUMP JUMPDEST PUSH1 0x1 PUSH1 0x1 PUSH1 0xA0 SHL SUB DUP3 AND PUSH0 SWAP1 DUP2 MSTORE PUSH1 0x20 DUP2 SWAP1 MSTORE PUSH1 0x40 SWAP1 KECCAK256 DUP1 SLOAD DUP3 ADD SWAP1 SSTORE JUMPDEST DUP2 PUSH1 0x1 PUSH1 0x1 PUSH1 0xA0 SHL SUB AND DUP4 PUSH1 0x1 PUSH1 0x1 PUSH1 0xA0 SHL SUB AND PUSH32 0xDDF252AD1BE2C89B69C2B068FC378DAA952BA7F163C4A11628F55A4DF523B3EF DUP4 PUSH1 0x40 MLOAD PUSH2 0x34B SWAP2 DUP2 MSTORE PUSH1 0x20 ADD SWAP1 JUMP JUMPDEST PUSH1 0x40 MLOAD DUP1 SWAP2 SUB SWAP1 LOG3 POP POP POP JUMP JUMPDEST PUSH0 PUSH0 PUSH1 0x40 DUP4 DUP6 SUB SLT ISZERO PUSH2 0x369 JUMPI PUSH0 PUSH0 REVERT JUMPDEST POP POP DUP1 MLOAD PUSH1 0x20 SWAP1 SWAP2 ADD MLOAD SWAP1 SWAP3 SWAP1 SWAP2 POP JUMP JUMPDEST PUSH4 0x4E487B71 PUSH1 0xE0 SHL PUSH0 MSTORE PUSH1 0x41 PUSH1 0x4 MSTORE PUSH1 0x24 PUSH0 REVERT JUMPDEST PUSH1 0x1 DUP2 DUP2 SHR SWAP1 DUP3 AND DUP1 PUSH2 0x3A2 JUMPI PUSH1 0x7F DUP3 AND SWAP2 POP JUMPDEST PUSH1 0x20 DUP3 LT DUP2 SUB PUSH2 0x3C0 JUMPI PUSH4 0x4E487B71 PUSH1 0xE0 SHL PUSH0 MSTORE PUSH1 0x22 PUSH1 0x4 MSTORE PUSH1 0x24 PUSH0 REVERT JUMPDEST POP SWAP2 SWAP1 POP JUMP JUMPDEST PUSH1 0x1F DUP3 GT ISZERO PUSH2 0x40D JUMPI DUP1 PUSH0 MSTORE PUSH1 0x20 PUSH0 KECCAK256 PUSH1 0x1F DUP5 ADD PUSH1 0x5 SHR DUP2 ADD PUSH1 0x20 DUP6 LT ISZERO PUSH2 0x3EB JUMPI POP DUP1 JUMPDEST PUSH1 0x1F DUP5 ADD PUSH1 0x5 SHR DUP3 ADD SWAP2 POP JUMPDEST DUP2 DUP2 LT ISZERO PUSH2 0x40A JUMPI PUSH0 DUP2 SSTORE PUSH1 0x1 ADD PUSH2 0x3F7 JUMP JUMPDEST POP POP JUMPDEST POP POP POP JUMP JUMPDEST DUP2 MLOAD PUSH1 0x1 PUSH1 0x1 PUSH1 0x40 SHL SUB DUP2 GT ISZERO PUSH2 0x42B JUMPI PUSH2 0x42B PUSH2 0x37A JUMP JUMPDEST PUSH2 0x43F DUP2 PUSH2 0x439 DUP5 SLOAD PUSH2 0x38E JUMP JUMPDEST DUP5 PUSH2 0x3C6 JUMP JUMPDEST PUSH1 0x20 PUSH1 0x1F DUP3 GT PUSH1 0x1 DUP2 EQ PUSH2 0x471 JUMPI PUSH0 DUP4 ISZERO PUSH2 0x45A JUMPI POP DUP5 DUP3 ADD MLOAD JUMPDEST PUSH0 NOT PUSH1 0x3 DUP6 SWAP1 SHL SHR NOT AND PUSH1 0x1 DUP5 SWAP1 SHL OR DUP5 SSTORE PUSH2 0x40A JUMP JUMPDEST PUSH0 DUP5 DUP2 MSTORE PUSH1 0x20 DUP2 KECCAK256 PUSH1 0x1F NOT DUP6 AND SWAP2 JUMPDEST DUP3 DUP2 LT ISZERO PUSH2 0x4A0 JUMPI DUP8 DUP6 ADD MLOAD DUP3 SSTORE PUSH1 0x20 SWAP5 DUP6 ADD SWAP5 PUSH1 0x1 SWAP1 SWAP3 ADD SWAP2 ADD PUSH2 0x480 JUMP JUMPDEST POP DUP5 DUP3 LT ISZERO PUSH2 0x4BD JUMPI DUP7 DUP5 ADD MLOAD PUSH0 NOT PUSH1 0x3 DUP8 SWAP1 SHL PUSH1 0xF8 AND SHR NOT AND DUP2 SSTORE JUMPDEST POP POP POP POP PUSH1 0x1 SWAP1 DUP2 SHL ADD SWAP1 SSTORE POP JUMP JUMPDEST PUSH4 0x4E487B71 PUSH1 0xE0 SHL PUSH0 MSTORE PUSH1 0x11 PUSH1 0x4 MSTORE PUSH1 0x24 PUSH0 REVERT JUMPDEST PUSH1 0x1 DUP2 JUMPDEST PUSH1 0x1 DUP5 GT ISZERO PUSH2 0x51B JUMPI DUP1 DUP6 DIV DUP2 GT ISZERO PUSH2 0x4FF JUMPI PUSH2 0x4FF PUSH2 0x4CC JUMP JUMPDEST PUSH1 0x1 DUP5 AND ISZERO PUSH2 0x50D JUMPI SWAP1 DUP2 MUL SWAP1 JUMPDEST PUSH1 0x1 SWAP4 SWAP1 SWAP4 SHR SWAP3 DUP1 MUL PUSH2 0x4E4 JUMP JUMPDEST SWAP4 POP SWAP4 SWAP2 POP POP JUMP JUMPDEST PUSH0 DUP3 PUSH2 0x531 JUMPI POP PUSH1 0x1 PUSH2 0x5BF JUMP JUMPDEST DUP2 PUSH2 0x53D JUMPI POP PUSH0 PUSH2 0x5BF JUMP JUMPDEST DUP2 PUSH1 0x1 DUP2 EQ PUSH2 0x553 JUMPI PUSH1 0x2 DUP2 EQ PUSH2 0x55D JUMPI PUSH2 0x579 JUMP JUMPDEST PUSH1 0x1 SWAP2 POP POP PUSH2 0x5BF JUMP JUMPDEST PUSH1 0xFF DUP5 GT ISZERO PUSH2 0x56E JUMPI PUSH2 0x56E PUSH2 0x4CC JUMP JUMPDEST POP POP PUSH1 0x1 DUP3 SHL PUSH2 0x5BF JUMP JUMPDEST POP PUSH1 0x20 DUP4 LT PUSH2 0x133 DUP4 LT AND PUSH1 0x4E DUP5 LT PUSH1 0xB DUP5 LT AND OR ISZERO PUSH2 0x59C JUMPI POP DUP2 DUP2 EXP PUSH2 0x5BF JUMP JUMPDEST PUSH2 0x5A8 PUSH0 NOT DUP5 DUP5 PUSH2 0x4E0 JUMP JUMPDEST DUP1 PUSH0 NOT DIV DUP3 GT ISZERO PUSH2 0x5BB JUMPI PUSH2 0x5BB PUSH2 0x4CC JUMP JUMPDEST MUL SWAP1 POP JUMPDEST SWAP3 SWAP2 POP POP JUMP JUMPDEST PUSH0 PUSH2 0x5D3 PUSH1 0xFF DUP5 AND DUP4 PUSH2 0x523 JUMP JUMPDEST SWAP4 SWAP3 POP POP POP JUMP JUMPDEST DUP1 DUP3 MUL DUP2 ISZERO DUP3 DUP3 DIV DUP5 EQ OR PUSH2 0x5BF JUMPI PUSH2 0x5BF PUSH2 0x4CC JUMP JUMPDEST DUP1 DUP3 ADD DUP1 DUP3 GT ISZERO PUSH2 0x5BF JUMPI PUSH2 0x5BF PUSH2 0x4CC JUMP JUMPDEST PUSH1 0x80 MLOAD PUSH2 0x93A PUSH2 0x623 PUSH0 CODECOPY PUSH0 DUP2 DUP2 PUSH2 0x1DE ADD MSTORE PUSH2 0x321 ADD MSTORE PUSH2 0x93A PUSH0 RETURN INVALID PUSH1 0x80 PUSH1 0x40 MSTORE CALLVALUE DUP1 ISZERO PUSH2 0xF JUMPI PUSH0 PUSH0 REVERT JUMPDEST POP PUSH1 0x4 CALLDATASIZE LT PUSH2 0xE5 JUMPI PUSH0 CALLDATALOAD PUSH1 0xE0 SHR DUP1 PUSH4 0x715018A6 GT PUSH2 0x88 JUMPI DUP1 PUSH4 0xA9059CBB GT PUSH2 0x63 JUMPI DUP1 PUSH4 0xA9059CBB EQ PUSH2 0x1C6 JUMPI DUP1 PUSH4 0xD5ABEB01 EQ PUSH2 0x1D9 JUMPI DUP1 PUSH4 0xDD62ED3E EQ PUSH2 0x200 JUMPI DUP1 PUSH4 0xF2FDE38B EQ PUSH2 0x238 JUMPI PUSH0 PUSH0 REVERT JUMPDEST DUP1 PUSH4 0x715018A6 EQ PUSH2 0x19B JUMPI DUP1 PUSH4 0x8DA5CB5B EQ PUSH2 0x1A3 JUMPI DUP1 PUSH4 0x95D89B41 EQ PUSH2 0x1BE JUMPI PUSH0 PUSH0 REVERT JUMPDEST DUP1 PUSH4 0x23B872DD GT PUSH2 0xC3 JUMPI DUP1 PUSH4 0x23B872DD EQ PUSH2 0x13C JUMPI DUP1 PUSH4 0x313CE567 EQ PUSH2 0x14F JUMPI DUP1 PUSH4 0x40C10F19 EQ PUSH2 0x15E JUMPI DUP1 PUSH4 0x70A08231 EQ PUSH2 0x173 JUMPI PUSH0 PUSH0 REVERT JUMPDEST DUP1 PUSH4 0x6FDDE03 EQ PUSH2 0xE9 JUMPI DUP1 PUSH4 0x95EA7B3 EQ PUSH2 0x107 JUMPI DUP1 PUSH4 0x18160DDD EQ PUSH2 0x12A JUMPI JUMPDEST PUSH0 PUSH0 REVERT JUMPDEST PUSH2 0xF1 PUSH2 0x24B JUMP JUMPDEST PUSH1 0x40 MLOAD PUSH2 0xFE SWAP2 SWAP1 PUSH2 0x7AA JUMP JUMPDEST PUSH1 0x40 MLOAD DUP1 SWAP2 SUB SWAP1 RETURN JUMPDEST PUSH2 0x11A PUSH2 0x115 CALLDATASIZE PUSH1 0x4 PUSH2 0x7FA JUMP JUMPDEST PUSH2 0x2DB JUMP JUMPDEST PUSH1 0x40 MLOAD SWAP1 ISZERO ISZERO DUP2 MSTORE PUSH1 0x20 ADD PUSH2 0xFE JUMP JUMPDEST PUSH1 0x2 SLOAD JUMPDEST PUSH1 0x40 MLOAD SWAP1 DUP2 MSTORE PUSH1 0x20 ADD PUSH2 0xFE JUMP JUMPDEST PUSH2 0x11A PUSH2 0x14A CALLDATASIZE PUSH1 0x4 PUSH2 0x822 JUMP JUMPDEST PUSH2 0x2F4 JUMP JUMPDEST PUSH1 0x40 MLOAD PUSH1 0x12 DUP2 MSTORE PUSH1 0x20 ADD PUSH2 0xFE JUMP JUMPDEST PUSH2 0x171 PUSH2 0x16C CALLDATASIZE PUSH1 0x4 PUSH2 0x7FA JUMP JUMPDEST PUSH2 0x317 JUMP JUMPDEST STOP JUMPDEST PUSH2 0x12E PUSH2 0x181 CALLDATASIZE PUSH1 0x4 PUSH2 0x85C JUMP JUMPDEST PUSH1 0x1 PUSH1 0x1 PUSH1 0xA0 SHL SUB AND PUSH0 SWAP1 DUP2 MSTORE PUSH1 0x20 DUP2 SWAP1 MSTORE PUSH1 0x40 SWAP1 KECCAK256 SLOAD SWAP1 JUMP JUMPDEST PUSH2 0x171 PUSH2 0x3AA JUMP JUMPDEST PUSH1 0x5 SLOAD PUSH1 0x40 MLOAD PUSH1 0x1 PUSH1 0x1 PUSH1 0xA0 SHL SUB SWAP1 SWAP2 AND DUP2 MSTORE PUSH1 0x20 ADD PUSH2 0xFE JUMP JUMPDEST PUSH2 0xF1 PUSH2 0x3BD JUMP JUMPDEST PUSH2 0x11A PUSH2 0x1D4 CALLDATASIZE PUSH1 0x4 PUSH2 0x7FA JUMP JUMPDEST PUSH2 0x3CC JUMP JUMPDEST PUSH2 0x12E PUSH32 0x0 DUP2 JUMP JUMPDEST PUSH2 0x12E PUSH2 0x20E CALLDATASIZE PUSH1 0x4 PUSH2 0x87C JUMP JUMPDEST PUSH1 0x1 PUSH1 0x1 PUSH1 0xA0 SHL SUB SWAP2 DUP3 AND PUSH0 SWAP1 DUP2 MSTORE PUSH1 0x1 PUSH1 0x20 SWAP1 DUP2 MSTORE PUSH1 0x40 DUP1 DUP4 KECCAK256 SWAP4 SWAP1 SWAP5 AND DUP3 MSTORE SWAP2 SWAP1 SWAP2 MSTORE KECCAK256 SLOAD SWAP1 JUMP JUMPDEST PUSH2 0x171 PUSH2 0x246 CALLDATASIZE PUSH1 0x4 PUSH2 0x85C JUMP JUMPDEST PUSH2 0x3D9 JUMP JUMPDEST PUSH1 0x60 PUSH1 0x3 DUP1 SLOAD PUSH2 0x25A SWAP1 PUSH2 0x8AD JUMP JUMPDEST DUP1 PUSH1 0x1F ADD PUSH1 0x20 DUP1 SWAP2 DIV MUL PUSH1 0x20 ADD PUSH1 0x40 MLOAD SWAP1 DUP2 ADD PUSH1 0x40 MSTORE DUP1 SWAP3 SWAP2 SWAP1 DUP2 DUP2 MSTORE PUSH1 0x20 ADD DUP3 DUP1 SLOAD PUSH2 0x286 SWAP1 PUSH2 0x8AD JUMP JUMPDEST DUP1 ISZERO PUSH2 0x2D1 JUMPI DUP1 PUSH1 0x1F LT PUSH2 0x2A8 JUMPI PUSH2 0x100 DUP1 DUP4 SLOAD DIV MUL DUP4 MSTORE SWAP2 PUSH1 0x20 ADD SWAP2 PUSH2 0x2D1 JUMP JUMPDEST DUP3 ADD SWAP2 SWAP1 PUSH0 MSTORE PUSH1 0x20 PUSH0 KECCAK256 SWAP1 JUMPDEST DUP2 SLOAD DUP2 MSTORE SWAP1 PUSH1 0x1 ADD SWAP1 PUSH1 0x20 ADD DUP1 DUP4 GT PUSH2 0x2B4 JUMPI DUP3 SWAP1 SUB PUSH1 0x1F AND DUP3 ADD SWAP2 JUMPDEST POP POP POP POP POP SWAP1 POP SWAP1 JUMP JUMPDEST PUSH0 CALLER PUSH2 0x2E8 DUP2 DUP6 DUP6 PUSH2 0x416 JUMP JUMPDEST PUSH1 0x1 SWAP2 POP POP JUMPDEST SWAP3 SWAP2 POP POP JUMP JUMPDEST PUSH0 CALLER PUSH2 0x301 DUP6 DUP3 DUP6 PUSH2 0x428 JUMP JUMPDEST PUSH2 0x30C DUP6 DUP6 DUP6 PUSH2 0x4A3 JUMP JUMPDEST POP PUSH1 0x1 SWAP5 SWAP4 POP POP POP POP JUMP JUMPDEST PUSH2 0x31F PUSH2 0x500 JUMP JUMPDEST PUSH32 0x0 DUP2 PUSH2 0x34A PUSH1 0x2 SLOAD SWAP1 JUMP JUMPDEST PUSH2 0x354 SWAP2 SWAP1 PUSH2 0x8E5 JUMP JUMPDEST GT ISZERO PUSH2 0x39C JUMPI PUSH1 0x40 MLOAD PUSH3 0x461BCD PUSH1 0xE5 SHL DUP2 MSTORE PUSH1 0x20 PUSH1 0x4 DUP3 ADD MSTORE PUSH1 0x12 PUSH1 0x24 DUP3 ADD MSTORE PUSH18 0x13585E081CDD5C1C1B1E481C995858DA1959 PUSH1 0x72 SHL PUSH1 0x44 DUP3 ADD MSTORE PUSH1 0x64 ADD JUMPDEST PUSH1 0x40 MLOAD DUP1 SWAP2 SUB SWAP1 REVERT JUMPDEST PUSH2 0x3A6 DUP3 DUP3 PUSH2 0x52D JUMP JUMPDEST POP POP JUMP JUMPDEST PUSH2 0x3B2 PUSH2 0x500 JUMP JUMPDEST PUSH2 0x3BB PUSH0 PUSH2 0x561 JUMP JUMPDEST JUMP JUMPDEST PUSH1 0x60 PUSH1 0x4 DUP1 SLOAD PUSH2 0x25A SWAP1 PUSH2 0x8AD JUMP JUMPDEST PUSH0 CALLER PUSH2 0x2E8 DUP2 DUP6 DUP6 PUSH2 0x4A3 JUMP JUMPDEST PUSH2 0x3E1 PUSH2 0x500 JUMP JUMPDEST PUSH1 0x1 PUSH1 0x1 PUSH1 0xA0 SHL SUB DUP2 AND PUSH2 0x40A JUMPI PUSH1 0x40 MLOAD PUSH4 0x1E4FBDF7 PUSH1 0xE0 SHL DUP2 MSTORE PUSH0 PUSH1 0x4 DUP3 ADD MSTORE PUSH1 0x24 ADD PUSH2 0x393 JUMP JUMPDEST PUSH2 0x413 DUP2 PUSH2 0x561 JUMP JUMPDEST POP JUMP JUMPDEST PUSH2 0x423 DUP4 DUP4 DUP4 PUSH1 0x1 PUSH2 0x5B2 JUMP JUMPDEST POP POP POP JUMP JUMPDEST PUSH1 0x1 PUSH1 0x1 PUSH1 0xA0 SHL SUB DUP4 DUP2 AND PUSH0 SWAP1 DUP2 MSTORE PUSH1 0x1 PUSH1 0x20 SWAP1 DUP2 MSTORE PUSH1 0x40 DUP1 DUP4 KECCAK256 SWAP4 DUP7 AND DUP4 MSTORE SWAP3 SWAP1 MSTORE KECCAK256 SLOAD PUSH0 NOT DUP2 EQ PUSH2 0x49D JUMPI DUP2 DUP2 LT ISZERO PUSH2 0x48F JUMPI PUSH1 0x40 MLOAD PUSH4 0x7DC7A0D9 PUSH1 0xE1 SHL DUP2 MSTORE PUSH1 0x1 PUSH1 0x1 PUSH1 0xA0 SHL SUB DUP5 AND PUSH1 0x4 DUP3 ADD MSTORE PUSH1 0x24 DUP2 ADD DUP3 SWAP1 MSTORE PUSH1 0x44 DUP2 ADD DUP4 SWAP1 MSTORE PUSH1 0x64 ADD PUSH2 0x393 JUMP JUMPDEST PUSH2 0x49D DUP5 DUP5 DUP5 DUP5 SUB PUSH0 PUSH2 0x5B2 JUMP JUMPDEST POP POP POP POP JUMP JUMPDEST PUSH1 0x1 PUSH1 0x1 PUSH1 0xA0 SHL SUB DUP4 AND PUSH2 0x4CC JUMPI PUSH1 0x40 MLOAD PUSH4 0x4B637E8F PUSH1 0xE1 SHL DUP2 MSTORE PUSH0 PUSH1 0x4 DUP3 ADD MSTORE PUSH1 0x24 ADD PUSH2 0x393 JUMP JUMPDEST PUSH1 0x1 PUSH1 0x1 PUSH1 0xA0 SHL SUB DUP3 AND PUSH2 0x4F5 JUMPI PUSH1 0x40 MLOAD PUSH4 0xEC442F05 PUSH1 0xE0 SHL DUP2 MSTORE PUSH0 PUSH1 0x4 DUP3 ADD MSTORE PUSH1 0x24 ADD PUSH2 0x393 JUMP JUMPDEST PUSH2 0x423 DUP4 DUP4 DUP4 PUSH2 0x684 JUMP JUMPDEST PUSH1 0x5 SLOAD PUSH1 0x1 PUSH1 0x1 PUSH1 0xA0 SHL SUB AND CALLER EQ PUSH2 0x3BB JUMPI PUSH1 0x40 MLOAD PUSH4 0x118CDAA7 PUSH1 0xE0 SHL DUP2 MSTORE CALLER PUSH1 0x4 DUP3 ADD MSTORE PUSH1 0x24 ADD PUSH2 0x393 JUMP JUMPDEST PUSH1 0x1 PUSH1 0x1 PUSH1 0xA0 SHL SUB DUP3 AND PUSH2 0x556 JUMPI PUSH1 0x40 MLOAD PUSH4 0xEC442F05 PUSH1 0xE0 SHL DUP2 MSTORE PUSH0 PUSH1 0x4 DUP3 ADD MSTORE PUSH1 0x24 ADD PUSH2 0x393 JUMP JUMPDEST PUSH2 0x3A6 PUSH0 DUP4 DUP4 PUSH2 0x684 JUMP JUMPDEST PUSH1 0x5 DUP1 SLOAD PUSH1 0x1 PUSH1 0x1 PUSH1 0xA0 SHL SUB DUP4 DUP2 AND PUSH1 0x1 PUSH1 0x1 PUSH1 0xA0 SHL SUB NOT DUP4 AND DUP2 OR SWAP1 SWAP4 SSTORE PUSH1 0x40 MLOAD SWAP2 AND SWAP2 SWAP1 DUP3 SWAP1 PUSH32 0x8BE0079C531659141344CD1FD0A4F28419497F9722A3DAAFE3B4186F6B6457E0 SWAP1 PUSH0 SWAP1 LOG3 POP POP JUMP JUMPDEST PUSH1 0x1 PUSH1 0x1 PUSH1 0xA0 SHL SUB DUP5 AND PUSH2 0x5DB JUMPI PUSH1 0x40 MLOAD PUSH4 0xE602DF05 PUSH1 0xE0 SHL DUP2 MSTORE PUSH0 PUSH1 0x4 DUP3 ADD MSTORE PUSH1 0x24 ADD PUSH2 0x393 JUMP JUMPDEST PUSH1 0x1 PUSH1 0x1 PUSH1 0xA0 SHL SUB DUP4 AND PUSH2 0x604 JUMPI PUSH1 0x40 MLOAD PUSH4 0x4A1406B1 PUSH1 0xE1 SHL DUP2 MSTORE PUSH0 PUSH1 0x4 DUP3 ADD MSTORE PUSH1 0x24 ADD PUSH2 0x393 JUMP JUMPDEST PUSH1 0x1 PUSH1 0x1 PUSH1 0xA0 SHL SUB DUP1 DUP6 AND PUSH0 SWAP1 DUP2 MSTORE PUSH1 0x1 PUSH1 0x20 SWAP1 DUP2 MSTORE PUSH1 0x40 DUP1 DUP4 KECCAK256 SWAP4 DUP8 AND DUP4 MSTORE SWAP3 SWAP1 MSTORE KECCAK256 DUP3 SWAP1 SSTORE DUP1 ISZERO PUSH2 0x49D JUMPI DUP3 PUSH1 0x1 PUSH1 0x1 PUSH1 0xA0 SHL SUB AND DUP5 PUSH1 0x1 PUSH1 0x1 PUSH1 0xA0 SHL SUB AND PUSH32 0x8C5BE1E5EBEC7D5BD14F71427D1E84F3DD0314C0F7B2291E5B200AC8C7C3B925 DUP5 PUSH1 0x40 MLOAD PUSH2 0x676 SWAP2 DUP2 MSTORE PUSH1 0x20 ADD SWAP1 JUMP JUMPDEST PUSH1 0x40 MLOAD DUP1 SWAP2 SUB SWAP1 LOG3 POP POP POP POP JUMP JUMPDEST PUSH1 0x1 PUSH1 0x1 PUSH1 0xA0 SHL SUB DUP4 AND PUSH2 0x6AE JUMPI DUP1 PUSH1 0x2 PUSH0 DUP3 DUP3 SLOAD PUSH2 0x6A3 SWAP2 SWAP1 PUSH2 0x8E5 JUMP JUMPDEST SWAP1 SWAP2 SSTORE POP PUSH2 0x71E SWAP1 POP JUMP JUMPDEST PUSH1 0x1 PUSH1 0x1 PUSH1 0xA0 SHL SUB DUP4 AND PUSH0 SWAP1 DUP2 MSTORE PUSH1 0x20 DUP2 SWAP1 MSTORE PUSH1 0x40 SWAP1 KECCAK256 SLOAD DUP2 DUP2 LT ISZERO PUSH2 0x700 JUMPI PUSH1 0x40 MLOAD PUSH4 0x391434E3 PUSH1 0xE2 SHL DUP2 MSTORE PUSH1 0x1 PUSH1 0x1 PUSH1 0xA0 SHL SUB DUP6 AND PUSH1 0x4 DUP3 ADD MSTORE PUSH1 0x24 DUP2 ADD DUP3 SWAP1 MSTORE PUSH1 0x44 DUP2 ADD DUP4 SWAP1 MSTORE PUSH1 0x64 ADD PUSH2 0x393 JUMP JUMPDEST PUSH1 0x1 PUSH1 0x1 PUSH1 0xA0 SHL SUB DUP5 AND PUSH0 SWAP1 DUP2 MSTORE PUSH1 0x20 DUP2 SWAP1 MSTORE PUSH1 0x40 SWAP1 KECCAK256 SWAP1 DUP3 SWAP1 SUB SWAP1 SSTORE JUMPDEST PUSH1 0x1 PUSH1 0x1 PUSH1 0xA0 SHL SUB DUP3 AND PUSH2 0x73A JUMPI PUSH1 0x2 DUP1 SLOAD DUP3 SWAP1 SUB SWAP1 SSTORE PUSH2 0x758 JUMP JUMPDEST PUSH1 0x1 PUSH1 0x1 PUSH1 0xA0 SHL SUB DUP3 AND PUSH0 SWAP1 DUP2 MSTORE PUSH1 0x20 DUP2 SWAP1 MSTORE PUSH1 0x40 SWAP1 KECCAK256 DUP1 SLOAD DUP3 ADD SWAP1 SSTORE JUMPDEST DUP2 PUSH1 0x1 PUSH1 0x1 PUSH1 0xA0 SHL SUB AND DUP4 PUSH1 0x1 PUSH1 0x1 PUSH1 0xA0 SHL SUB AND PUSH32 0xDDF252AD1BE2C89B69C2B068FC378DAA952BA7F163C4A11628F55A4DF523B3EF DUP4 PUSH1 0x40 MLOAD PUSH2 0x79D SWAP2 DUP2 MSTORE PUSH1 0x20 ADD SWAP1 JUMP JUMPDEST PUSH1 0x40 MLOAD DUP1 SWAP2 SUB SWAP1 LOG3 POP POP POP JUMP JUMPDEST PUSH1 0x20 DUP2 MSTORE PUSH0 DUP3 MLOAD DUP1 PUSH1 0x20 DUP5 ADD MSTORE DUP1 PUSH1 0x20 DUP6 ADD PUSH1 0x40 DUP6 ADD MCOPY PUSH0 PUSH1 0x40 DUP3 DUP6 ADD ADD MSTORE PUSH1 0x40 PUSH1 0x1F NOT PUSH1 0x1F DUP4 ADD AND DUP5 ADD ADD SWAP2 POP POP SWAP3 SWAP2 POP POP JUMP JUMPDEST DUP1 CALLDATALOAD PUSH1 0x1 PUSH1 0x1 PUSH1 0xA0 SHL SUB DUP2 AND DUP2 EQ PUSH2 0x7F5 JUMPI PUSH0 PUSH0 REVERT JUMPDEST SWAP2 SWAP1 POP JUMP JUMPDEST PUSH0 PUSH0 PUSH1 0x40 DUP4 DUP6 SUB SLT ISZERO PUSH2 0x80B JUMPI PUSH0 PUSH0 REVERT JUMPDEST PUSH2 0x814 DUP4 PUSH2 0x7DF JUMP JUMPDEST SWAP5 PUSH1 0x20 SWAP4 SWAP1 SWAP4 ADD CALLDATALOAD SWAP4 POP POP POP JUMP JUMPDEST PUSH0 PUSH0 PUSH0 PUSH1 0x60 DUP5 DUP7 SUB SLT ISZERO PUSH2 0x834 JUMPI PUSH0 PUSH0 REVERT JUMPDEST PUSH2 0x83D DUP5 PUSH2 0x7DF JUMP JUMPDEST SWAP3 POP PUSH2 0x84B PUSH1 0x20 DUP6 ADD PUSH2 0x7DF JUMP JUMPDEST SWAP3 SWAP6 SWAP3 SWAP5 POP POP POP PUSH1 0x40 SWAP2 SWAP1 SWAP2 ADD CALLDATALOAD SWAP1 JUMP JUMPDEST PUSH0 PUSH1 0x20 DUP3 DUP5 SUB SLT ISZERO PUSH2 0x86C JUMPI PUSH0 PUSH0 REVERT JUMPDEST PUSH2 0x875 DUP3 PUSH2 0x7DF JUMP JUMPDEST SWAP4 SWAP3 POP POP POP JUMP JUMPDEST PUSH0 PUSH0 PUSH1 0x40 DUP4 DUP6 SUB SLT ISZERO PUSH2 0x88D JUMPI PUSH0 PUSH0 REVERT JUMPDEST PUSH2 0x896 DUP4 PUSH2 0x7DF JUMP JUMPDEST SWAP2 POP PUSH2 0x8A4 PUSH1 0x20 DUP5 ADD PUSH2 0x7DF JUMP JUMPDEST SWAP1 POP SWAP3 POP SWAP3 SWAP1 POP JUMP JUMPDEST PUSH1 0x1 DUP2 DUP2 SHR SWAP1 DUP3 AND DUP1 PUSH2 0x8C1 JUMPI PUSH1 0x7F DUP3 AND SWAP2 POP JUMPDEST PUSH1 0x20 DUP3 LT DUP2 SUB PUSH2 0x8DF JUMPI PUSH4 0x4E487B71 PUSH1 0xE0 SHL PUSH0 MSTORE PUSH1 0x22 PUSH1 0x4 MSTORE PUSH1 0x24 PUSH0 REVERT JUMPDEST POP SWAP2 SWAP1 POP JUMP JUMPDEST DUP1 DUP3 ADD DUP1 DUP3 GT ISZERO PUSH2 0x2EE JUMPI PUSH4 0x4E487B71 PUSH1 0xE0 SHL PUSH0 MSTORE PUSH1 0x11 PUSH1 0x4 MSTORE PUSH1 0x24 PUSH0 REVERT INVALID LOG2 PUSH5 0x6970667358 0x22 SLT KECCAK256 SHL PUSH31 0x70ED83F0B804A5713646A203B2391AF0F2DB8C2B758429F35A6840B954CF64 PUSH20 0x6F6C634300081E00330000000000000000000000 "
		},
		"gasEstimates": {
			"creation": {
				"codeDepositCost": "472400",
				"executionCost": "infinite",
				"totalCost": "infinite"
			},
			"external": {
				"allowance(address,address)": "infinite",
				"approve(address,uint256)": "24757",
				"balanceOf(address)": "2626",
				"decimals()": "221",
				"maxSupply()": "infinite",
				"mint(address,uint256)": "infinite",
				"name()": "infinite",
				"owner()": "2345",
				"renounceOwnership()": "infinite",
				"symbol()": "infinite",
				"totalSupply()": "2348",
				"transfer(address,uint256)": "51237",
				"transferFrom(address,address,uint256)": "infinite",
				"transferOwnership(address)": "28421"
			}
		},
		"methodIdentifiers": {
			"allowance(address,address)": "dd62ed3e",
			"approve(address,uint256)": "095ea7b3",
			"balanceOf(address)": "70a08231",
			"decimals()": "313ce567",
			"maxSupply()": "d5abeb01",
			"mint(address,uint256)": "40c10f19",
			"name()": "06fdde03",
			"owner()": "8da5cb5b",
			"renounceOwnership()": "715018a6",
			"symbol()": "95d89b41",
			"totalSupply()": "18160ddd",
			"transfer(address,uint256)": "a9059cbb",
			"transferFrom(address,address,uint256)": "23b872dd",
			"transferOwnership(address)": "f2fde38b"
		}
	},
	"abi": [
		{
			"inputs": [
				{
					"internalType": "uint256",
					"name": "initialSupply",
					"type": "uint256"
				},
				{
					"internalType": "uint256",
					"name": "_maxSupply",
					"type": "uint256"
				}
			],
			"stateMutability": "nonpayable",
			"type": "constructor"
		},
		{
			"inputs": [
				{
					"internalType": "address",
					"name": "spender",
					"type": "address"
				},
				{
					"internalType": "uint256",
					"name": "allowance",
					"type": "uint256"
				},
				{
					"internalType": "uint256",
					"name": "needed",
					"type": "uint256"
				}
			],
			"name": "ERC20InsufficientAllowance",
			"type": "error"
		},
		{
			"inputs": [
				{
					"internalType": "address",
					"name": "sender",
					"type": "address"
				},
				{
					"internalType": "uint256",
					"name": "balance",
					"type": "uint256"
				},
				{
					"internalType": "uint256",
					"name": "needed",
					"type": "uint256"
				}
			],
			"name": "ERC20InsufficientBalance",
			"type": "error"
		},
		{
			"inputs": [
				{
					"internalType": "address",
					"name": "approver",
					"type": "address"
				}
			],
			"name": "ERC20InvalidApprover",
			"type": "error"
		},
		{
			"inputs": [
				{
					"internalType": "address",
					"name": "receiver",
					"type": "address"
				}
			],
			"name": "ERC20InvalidReceiver",
			"type": "error"
		},
		{
			"inputs": [
				{
					"internalType": "address",
					"name": "sender",
					"type": "address"
				}
			],
			"name": "ERC20InvalidSender",
			"type": "error"
		},
		{
			"inputs": [
				{
					"internalType": "address",
					"name": "spender",
					"type": "address"
				}
			],
			"name": "ERC20InvalidSpender",
			"type": "error"
		},
		{
			"inputs": [
				{
					"internalType": "address",
					"name": "owner",
					"type": "address"
				}
			],
			"name": "OwnableInvalidOwner",
			"type": "error"
		},
		{
			"inputs": [
				{
					"internalType": "address",
					"name": "account",
					"type": "address"
				}
			],
			"name": "OwnableUnauthorizedAccount",
			"type": "error"
		},
		{
			"anonymous": false,
			"inputs": [
				{
					"indexed": true,
					"internalType": "address",
					"name": "owner",
					"type": "address"
				},
				{
					"indexed": true,
					"internalType": "address",
					"name": "spender",
					"type": "address"
				},
				{
					"indexed": false,
					"internalType": "uint256",
					"name": "value",
					"type": "uint256"
				}
			],
			"name": "Approval",
			"type": "event"
		},
		{
			"anonymous": false,
			"inputs": [
				{
					"indexed": true,
					"internalType": "address",
					"name": "previousOwner",
					"type": "address"
				},
				{
					"indexed": true,
					"internalType": "address",
					"name": "newOwner",
					"type": "address"
				}
			],
			"name": "OwnershipTransferred",
			"type": "event"
		},
		{
			"anonymous": false,
			"inputs": [
				{
					"indexed": true,
					"internalType": "address",
					"name": "from",
					"type": "address"
				},
				{
					"indexed": true,
					"internalType": "address",
					"name": "to",
					"type": "address"
				},
				{
					"indexed": false,
					"internalType": "uint256",
					"name": "value",
					"type": "uint256"
				}
			],
			"name": "Transfer",
			"type": "event"
		},
		{
			"inputs": [
				{
					"internalType": "address",
					"name": "owner",
					"type": "address"
				},
				{
					"internalType": "address",
					"name": "spender",
					"type": "address"
				}
			],
			"name": "allowance",
			"outputs": [
				{
					"internalType": "uint256",
					"name": "",
					"type": "uint256"
				}
			],
			"stateMutability": "view",
			"type": "function"
		},
		{
			"inputs": [
				{
					"internalType": "address",
					"name": "spender",
					"type": "address"
				},
				{
					"internalType": "uint256",
					"name": "value",
					"type": "uint256"
				}
			],
			"name": "approve",
			"outputs": [
				{
					"internalType": "bool",
					"name": "",
					"type": "bool"
				}
			],
			"stateMutability": "nonpayable",
			"type": "function"
		},
		{
			"inputs": [
				{
					"internalType": "address",
					"name": "account",
					"type": "address"
				}
			],
			"name": "balanceOf",
			"outputs": [
				{
					"internalType": "uint256",
					"name": "",
					"type": "uint256"
				}
			],
			"stateMutability": "view",
			"type": "function"
		},
		{
			"inputs": [],
			"name": "decimals",
			"outputs": [
				{
					"internalType": "uint8",
					"name": "",
					"type": "uint8"
				}
			],
			"stateMutability": "view",
			"type": "function"
		},
		{
			"inputs": [],
			"name": "maxSupply",
			"outputs": [
				{
					"internalType": "uint256",
					"name": "",
					"type": "uint256"
				}
			],
			"stateMutability": "view",
			"type": "function"
		},
		{
			"inputs": [
				{
					"internalType": "address",
					"name": "to",
					"type": "address"
				},
				{
					"internalType": "uint256",
					"name": "amount",
					"type": "uint256"
				}
			],
			"name": "mint",
			"outputs": [],
			"stateMutability": "nonpayable",
			"type": "function"
		},
		{
			"inputs": [],
			"name": "name",
			"outputs": [
				{
					"internalType": "string",
					"name": "",
					"type": "string"
				}
			],
			"stateMutability": "view",
			"type": "function"
		},
		{
			"inputs": [],
			"name": "owner",
			"outputs": [
				{
					"internalType": "address",
					"name": "",
					"type": "address"
				}
			],
			"stateMutability": "view",
			"type": "function"
		},
		{
			"inputs": [],
			"name": "renounceOwnership",
			"outputs": [],
			"stateMutability": "nonpayable",
			"type": "function"
		},
		{
			"inputs": [],
			"name": "symbol",
			"outputs": [
				{
					"internalType": "string",
					"name": "",
					"type": "string"
				}
			],
			"stateMutability": "view",
			"type": "function"
		},
		{
			"inputs": [],
			"name": "totalSupply",
			"outputs": [
				{
					"internalType": "uint256",
					"name": "",
					"type": "uint256"
				}
			],
			"stateMutability": "view",
			"type": "function"
		},
		{
			"inputs": [
				{
					"internalType": "address",
					"name": "to",
					"type": "address"
				},
				{
					"internalType": "uint256",
					"name": "value",
					"type": "uint256"
				}
			],
			"name": "transfer",
			"outputs": [
				{
					"internalType": "bool",
					"name": "",
					"type": "bool"
				}
			],
			"stateMutability": "nonpayable",
			"type": "function"
		},
		{
			"inputs": [
				{
					"internalType": "address",
					"name": "from",
					"type": "address"
				},
				{
					"internalType": "address",
					"name": "to",
					"type": "address"
				},
				{
					"internalType": "uint256",
					"name": "value",
					"type": "uint256"
				}
			],
			"name": "transferFrom",
			"outputs": [
				{
					"internalType": "bool",
					"name": "",
					"type": "bool"
				}
			],
			"stateMutability": "nonpayable",
			"type": "function"
		},
		{
			"inputs": [
				{
					"internalType": "address",
					"name": "newOwner",
					"type": "address"
				}
			],
			"name": "transferOwnership",
			"outputs": [],
			"stateMutability": "nonpayable",
			"type": "function"
		}
	]
}